{
  "_format": "hh-sol-artifact-1",
  "contractName": "Propel1155Token",
  "sourceName": "contracts/Propel1155Token.sol",
  "abi": [
    {
      "anonymous": false,
      "inputs": [
        {
          "indexed": true,
          "internalType": "address",
          "name": "account",
          "type": "address"
        },
        {
          "indexed": true,
          "internalType": "address",
          "name": "sender",
          "type": "address"
        }
      ],
      "name": "AdminApproved",
      "type": "event"
    },
    {
      "anonymous": false,
      "inputs": [
        {
          "indexed": true,
          "internalType": "address",
          "name": "account",
          "type": "address"
        },
        {
          "indexed": true,
          "internalType": "address",
          "name": "sender",
          "type": "address"
        }
      ],
      "name": "AdminRevoked",
      "type": "event"
    },
    {
      "anonymous": false,
      "inputs": [
        {
          "indexed": true,
          "internalType": "address",
          "name": "previousOwner",
          "type": "address"
        },
        {
          "indexed": true,
          "internalType": "address",
          "name": "newOwner",
          "type": "address"
        }
      ],
      "name": "OwnershipTransferred",
      "type": "event"
    },
    {
      "inputs": [
        {
          "internalType": "address",
          "name": "addr",
          "type": "address"
        }
      ],
      "name": "addAdmin",
      "outputs": [],
      "stateMutability": "nonpayable",
      "type": "function"
    },
    {
      "inputs": [
        {
          "internalType": "address",
          "name": "admin",
          "type": "address"
        }
      ],
      "name": "approveAdmin",
      "outputs": [],
      "stateMutability": "nonpayable",
      "type": "function"
    },
    {
      "inputs": [],
      "name": "getAdmins",
      "outputs": [
        {
          "internalType": "address[]",
          "name": "admins",
          "type": "address[]"
        }
      ],
      "stateMutability": "view",
      "type": "function"
    },
    {
      "inputs": [],
      "name": "getDonorIndices",
      "outputs": [
        {
          "internalType": "uint256[]",
          "name": "",
          "type": "uint256[]"
        }
      ],
      "stateMutability": "view",
      "type": "function"
    },
    {
      "inputs": [],
      "name": "getNumTokens",
      "outputs": [
        {
          "internalType": "uint256",
          "name": "",
          "type": "uint256"
        }
      ],
      "stateMutability": "view",
      "type": "function"
    },
    {
      "inputs": [],
      "name": "getRecipientIndices",
      "outputs": [
        {
          "internalType": "uint256[]",
          "name": "",
          "type": "uint256[]"
        }
      ],
      "stateMutability": "view",
      "type": "function"
    },
    {
      "inputs": [
        {
          "internalType": "address",
          "name": "addr",
          "type": "address"
        }
      ],
      "name": "getUserType",
      "outputs": [
        {
          "internalType": "string",
          "name": "",
          "type": "string"
        }
      ],
      "stateMutability": "view",
      "type": "function"
    },
    {
      "inputs": [],
      "name": "initialize",
      "outputs": [],
      "stateMutability": "nonpayable",
      "type": "function"
    },
    {
      "inputs": [
        {
          "internalType": "address",
          "name": "admin",
          "type": "address"
        }
      ],
      "name": "isAdmin",
      "outputs": [
        {
          "internalType": "bool",
          "name": "",
          "type": "bool"
        }
      ],
      "stateMutability": "view",
      "type": "function"
    },
    {
      "inputs": [
        {
          "internalType": "address",
          "name": "mintFor",
          "type": "address"
        },
        {
          "internalType": "uint256[]",
          "name": "amounts",
          "type": "uint256[]"
        },
        {
          "internalType": "string[]",
          "name": "uris",
          "type": "string[]"
        }
      ],
      "name": "mintSingleAddressMultipleTokens",
      "outputs": [],
      "stateMutability": "nonpayable",
      "type": "function"
    },
    {
      "inputs": [
        {
          "internalType": "address",
          "name": "mintFor",
          "type": "address"
        },
        {
          "internalType": "string",
          "name": "tokenType",
          "type": "string"
        },
        {
          "internalType": "uint256[]",
          "name": "amount",
          "type": "uint256[]"
        },
        {
          "internalType": "string",
          "name": "uri",
          "type": "string"
        }
      ],
      "name": "mintSingleAddressSingleToken",
      "outputs": [],
      "stateMutability": "nonpayable",
      "type": "function"
    },
    {
      "inputs": [],
      "name": "owner",
      "outputs": [
        {
          "internalType": "address",
          "name": "",
          "type": "address"
        }
      ],
      "stateMutability": "view",
      "type": "function"
    },
    {
      "inputs": [],
      "name": "renounceOwnership",
      "outputs": [],
      "stateMutability": "nonpayable",
      "type": "function"
    },
    {
      "inputs": [
        {
          "internalType": "address",
          "name": "admin",
          "type": "address"
        }
      ],
      "name": "revokeAdmin",
      "outputs": [],
      "stateMutability": "nonpayable",
      "type": "function"
    },
    {
      "inputs": [
        {
          "internalType": "address",
          "name": "core",
          "type": "address"
        }
      ],
      "name": "setCore",
      "outputs": [],
      "stateMutability": "nonpayable",
      "type": "function"
    },
    {
      "inputs": [
        {
          "internalType": "address",
          "name": "core",
          "type": "address"
        },
        {
          "internalType": "uint256[]",
          "name": "tokenIdArray",
          "type": "uint256[]"
        },
        {
          "internalType": "string[]",
          "name": "jsonURLArray",
          "type": "string[]"
        }
      ],
      "name": "setURI",
      "outputs": [],
      "stateMutability": "nonpayable",
      "type": "function"
    },
    {
      "inputs": [
        {
          "internalType": "bytes4",
          "name": "interfaceId",
          "type": "bytes4"
        }
      ],
      "name": "supportsInterface",
      "outputs": [
        {
          "internalType": "bool",
          "name": "",
          "type": "bool"
        }
      ],
      "stateMutability": "view",
      "type": "function"
    },
    {
      "inputs": [
        {
          "internalType": "address",
          "name": "",
          "type": "address"
        }
      ],
      "name": "tokenIndexes",
      "outputs": [
        {
          "internalType": "uint256",
          "name": "",
          "type": "uint256"
        }
      ],
      "stateMutability": "view",
      "type": "function"
    },
    {
      "inputs": [
        {
          "internalType": "address",
          "name": "core",
          "type": "address"
        },
        {
          "internalType": "uint256",
          "name": "tokenId",
          "type": "uint256"
        }
      ],
      "name": "tokenURI",
      "outputs": [
        {
          "internalType": "string",
          "name": "",
          "type": "string"
        }
      ],
      "stateMutability": "view",
      "type": "function"
    },
    {
      "inputs": [
        {
          "internalType": "address",
          "name": "core",
          "type": "address"
        },
        {
          "internalType": "uint256",
          "name": "tokenId",
          "type": "uint256"
        }
      ],
      "name": "tokenURIRetrieve",
      "outputs": [
        {
          "internalType": "string",
          "name": "",
          "type": "string"
        }
      ],
      "stateMutability": "view",
      "type": "function"
    },
    {
      "inputs": [
        {
          "internalType": "address",
          "name": "newOwner",
          "type": "address"
        }
      ],
      "name": "transferOwnership",
      "outputs": [],
      "stateMutability": "nonpayable",
      "type": "function"
    },
    {
      "inputs": [
        {
          "internalType": "address",
          "name": "",
          "type": "address"
        }
      ],
      "name": "typeMap",
      "outputs": [
        {
          "internalType": "string",
          "name": "",
          "type": "string"
        }
      ],
      "stateMutability": "view",
      "type": "function"
    }
  ],
  "bytecode": "0x608060405260016004553480156200001657600080fd5b50620000376200002b6200003d60201b60201c565b6200004560201b60201c565b62000109565b600033905090565b60008060009054906101000a900473ffffffffffffffffffffffffffffffffffffffff169050816000806101000a81548173ffffffffffffffffffffffffffffffffffffffff021916908373ffffffffffffffffffffffffffffffffffffffff1602179055508173ffffffffffffffffffffffffffffffffffffffff168173ffffffffffffffffffffffffffffffffffffffff167f8be0079c531659141344cd1fd0a4f28419497f9722a3daafe3b4186f6b6457e060405160405180910390a35050565b613c1880620001196000396000f3fe608060405234801561001057600080fd5b50600436106101425760003560e01c806370480275116100b85780638da5cb5b1161007c5780638da5cb5b1461034d57806398040cfd1461036b578063cd2ed8fb14610387578063e1a63d81146103a5578063e9dc6375146103d5578063f2fde38b1461040557610142565b806370480275146102d1578063715018a6146102ed57806380009630146102f75780638129fc1c146103135780638b3f863f1461031d57610142565b806331ae450b1161010a57806331ae450b146102115780635037de281461022f5780635069fe1b1461024b578063647b871c146102695780636d69fb03146102855780636d73e669146102b557610142565b806301ffc9a71461014757806304bc3b1c1461017757806310f5f225146101a757806324d7806c146101c55780632d345670146101f5575b600080fd5b610161600480360381019061015c91906125d4565b610421565b60405161016e919061261c565b60405180910390f35b610191600480360381019061018c9190612695565b6104ab565b60405161019e91906126db565b60405180910390f35b6101af6104c3565b6040516101bc91906127b4565b60405180910390f35b6101df60048036038101906101da9190612695565b61051b565b6040516101ec919061261c565b60405180910390f35b61020f600480360381019061020a9190612695565b610575565b005b610219610609565b6040516102269190612894565b60405180910390f35b61024960048036038101906102449190612af0565b6106eb565b005b610253611005565b60405161026091906127b4565b60405180910390f35b610283600480360381019061027e9190612c8c565b61105d565b005b61029f600480360381019061029a9190612695565b6112cb565b6040516102ac9190612d96565b60405180910390f35b6102cf60048036038101906102ca9190612695565b61136b565b005b6102eb60048036038101906102e69190612695565b6113fe565b005b6102f5611546565b005b610311600480360381019061030c9190612695565b61155a565b005b61031b61162e565b005b61033760048036038101906103329190612695565b611742565b6040516103449190612d96565b60405180910390f35b610355611813565b6040516103629190612dc7565b60405180910390f35b61038560048036038101906103809190612c8c565b61183c565b005b61038f611c95565b60405161039c91906126db565b60405180910390f35b6103bf60048036038101906103ba9190612de2565b611cab565b6040516103cc9190612d96565b60405180910390f35b6103ef60048036038101906103ea9190612de2565b611de1565b6040516103fc9190612d96565b60405180910390f35b61041f600480360381019061041a9190612695565b611eb1565b005b60007fe9dc6375000000000000000000000000000000000000000000000000000000007bffffffffffffffffffffffffffffffffffffffffffffffffffffffff1916827bffffffffffffffffffffffffffffffffffffffffffffffffffffffff19161480610494575061049382611f34565b5b806104a457506104a382611f34565b5b9050919050565b60076020528060005260406000206000915090505481565b6060600a80548060200260200160405190810160405280929190818152602001828054801561051157602002820191906000526020600020905b8154815260200190600101908083116104fd575b5050505050905090565b60008173ffffffffffffffffffffffffffffffffffffffff1661053c611813565b73ffffffffffffffffffffffffffffffffffffffff16148061056e575061056d826001611fae90919063ffffffff16565b5b9050919050565b61057d611fde565b610591816001611fae90919063ffffffff16565b15610606573373ffffffffffffffffffffffffffffffffffffffff168173ffffffffffffffffffffffffffffffffffffffff167f7c0c3c84c67c85fcac635147348bfe374c24a1a93d0366d1cfe9d8853cbf89d560405160405180910390a361060481600161205c90919063ffffffff16565b505b50565b6060610615600161208c565b67ffffffffffffffff81111561062e5761062d6128d1565b5b60405190808252806020026020018201604052801561065c5781602001602082028036833780820191505090505b50905060005b61066c600161208c565b8110156106e7576106878160016120a190919063ffffffff16565b82828151811061069a57610699612e22565b5b602002602001019073ffffffffffffffffffffffffffffffffffffffff16908173ffffffffffffffffffffffffffffffffffffffff168152505080806106df90612e80565b915050610662565b5090565b3373ffffffffffffffffffffffffffffffffffffffff1661070a611813565b73ffffffffffffffffffffffffffffffffffffffff16148061073c575061073b336001611fae90919063ffffffff16565b5b61077b576040517f08c379a000000000000000000000000000000000000000000000000000000000815260040161077290612f3a565b60405180910390fd5b60008073ffffffffffffffffffffffffffffffffffffffff168573ffffffffffffffffffffffffffffffffffffffff16036109a25760405180602001604052803373ffffffffffffffffffffffffffffffffffffffff1673ffffffffffffffffffffffffffffffffffffffff1681525060059060016107fb929190612404565b503390506040518060400160405280600781526020017f446f6e61746f7200000000000000000000000000000000000000000000000000815250518451036108ef576040518060400160405280600781526020017f446f6e61746f7200000000000000000000000000000000000000000000000000815250600960008773ffffffffffffffffffffffffffffffffffffffff1673ffffffffffffffffffffffffffffffffffffffff16815260200190815260200160002090816108be9190613166565b50600a600454908060018154018082558091505060019003906000526020600020016000909190919091505561099d565b6040518060400160405280600981526020017f526563697069656e740000000000000000000000000000000000000000000000815250600960008773ffffffffffffffffffffffffffffffffffffffff1673ffffffffffffffffffffffffffffffffffffffff16815260200190815260200160002090816109709190613166565b50600b60045490806001815401808255809150506001900390600052602060002001600090919091909150555b610ea2565b60405180602001604052808673ffffffffffffffffffffffffffffffffffffffff1673ffffffffffffffffffffffffffffffffffffffff1681525060059060016109ed929190612404565b506000600960008773ffffffffffffffffffffffffffffffffffffffff1673ffffffffffffffffffffffffffffffffffffffff1681526020019081526020016000208054610a3a90612f89565b90501480610ac957506040518060400160405280600581526020017f41646d696e00000000000000000000000000000000000000000000000000000081525051600960008773ffffffffffffffffffffffffffffffffffffffff1673ffffffffffffffffffffffffffffffffffffffff1681526020019081526020016000208054610ac490612f89565b905014155b15610c71576040518060400160405280600781526020017f446f6e61746f720000000000000000000000000000000000000000000000000081525051845103610bbe576040518060400160405280600781526020017f446f6e61746f7200000000000000000000000000000000000000000000000000815250600960008773ffffffffffffffffffffffffffffffffffffffff1673ffffffffffffffffffffffffffffffffffffffff1681526020019081526020016000209081610b8d9190613166565b50600a6004549080600181540180825580915050600190039060005260206000200160009091909190915055610c6c565b6040518060400160405280600981526020017f526563697069656e740000000000000000000000000000000000000000000000815250600960008773ffffffffffffffffffffffffffffffffffffffff1673ffffffffffffffffffffffffffffffffffffffff1681526020019081526020016000209081610c3f9190613166565b50600b60045490806001815401808255809150506001900390600052602060002001600090919091909150555b610e9e565b8351600960008773ffffffffffffffffffffffffffffffffffffffff1673ffffffffffffffffffffffffffffffffffffffff1681526020019081526020016000208054610cbd90612f89565b905014610cff576040517f08c379a0000000000000000000000000000000000000000000000000000000008152600401610cf6906132aa565b60405180910390fd5b6040518060400160405280600781526020017f446f6e61746f720000000000000000000000000000000000000000000000000081525051845103610def576040518060400160405280600781526020017f446f6e61746f7200000000000000000000000000000000000000000000000000815250600960008773ffffffffffffffffffffffffffffffffffffffff1673ffffffffffffffffffffffffffffffffffffffff1681526020019081526020016000209081610dbe9190613166565b50600a6004549080600181540180825580915050600190039060005260206000200160009091909190915055610e9d565b6040518060400160405280600981526020017f526563697069656e740000000000000000000000000000000000000000000000815250600960008773ffffffffffffffffffffffffffffffffffffffff1673ffffffffffffffffffffffffffffffffffffffff1681526020019081526020016000209081610e709190613166565b50600b60045490806001815401808255809150506001900390600052602060002001600090919091909150555b5b8490505b6001600760008373ffffffffffffffffffffffffffffffffffffffff1673ffffffffffffffffffffffffffffffffffffffff1681526020019081526020016000206000828254610ef291906132ca565b92505081905550816008600060045481526020019081526020016000209081610f1b9190613166565b506040518060200160405280838152506006906001610f3b92919061248e565b50600360009054906101000a900473ffffffffffffffffffffffffffffffffffffffff1673ffffffffffffffffffffffffffffffffffffffff16638c6e847260058560066040518463ffffffff1660e01b8152600401610f9d93929190613545565b6000604051808303816000875af1158015610fbc573d6000803e3d6000fd5b505050506040513d6000823e3d601f19601f82011682018060405250810190610fe5919061363d565b5060046000815480929190610ff990612e80565b91905055505050505050565b6060600b80548060200260200160405190810160405280929190818152602001828054801561105357602002820191906000526020600020905b81548152602001906001019080831161103f575b5050505050905090565b3373ffffffffffffffffffffffffffffffffffffffff1661107c611813565b73ffffffffffffffffffffffffffffffffffffffff1614806110ae57506110ad336001611fae90919063ffffffff16565b5b6110ed576040517f08c379a00000000000000000000000000000000000000000000000000000000081526004016110e490612f3a565b60405180910390fd5b8273ffffffffffffffffffffffffffffffffffffffff16600360009054906101000a900473ffffffffffffffffffffffffffffffffffffffff1673ffffffffffffffffffffffffffffffffffffffff161461117d576040517f08c379a0000000000000000000000000000000000000000000000000000000008152600401611174906136d2565b60405180910390fd5b80518251146111c1576040517f08c379a00000000000000000000000000000000000000000000000000000000081526004016111b890613764565b60405180910390fd5b60005b8251811015611236578181815181106111e0576111df612e22565b5b6020026020010151600860008584815181106111ff576111fe612e22565b5b6020026020010151815260200190815260200160002090816112219190613166565b5060018161122f91906132ca565b90506111c4565b50600360009054906101000a900473ffffffffffffffffffffffffffffffffffffffff1673ffffffffffffffffffffffffffffffffffffffff166361e5bc6b83836040518363ffffffff1660e01b815260040161129492919061386e565b600060405180830381600087803b1580156112ae57600080fd5b505af11580156112c2573d6000803e3d6000fd5b50505050505050565b600960205280600052604060002060009150905080546112ea90612f89565b80601f016020809104026020016040519081016040528092919081815260200182805461131690612f89565b80156113635780601f1061133857610100808354040283529160200191611363565b820191906000526020600020905b81548152906001019060200180831161134657829003601f168201915b505050505081565b611373611fde565b611387816001611fae90919063ffffffff16565b6113fb573373ffffffffffffffffffffffffffffffffffffffff168173ffffffffffffffffffffffffffffffffffffffff167f7e1a1a08d52e4ba0e21554733d66165fd5151f99460116223d9e3a608eec5cb160405160405180910390a36113f98160016120bb90919063ffffffff16565b505b50565b6040518060400160405280600581526020017f41646d696e00000000000000000000000000000000000000000000000000000081525051600960003373ffffffffffffffffffffffffffffffffffffffff1673ffffffffffffffffffffffffffffffffffffffff168152602001908152602001600020805461147f90612f89565b9050146114c1576040517f08c379a00000000000000000000000000000000000000000000000000000000081526004016114b890613917565b60405180910390fd5b6040518060400160405280600581526020017f41646d696e000000000000000000000000000000000000000000000000000000815250600960008373ffffffffffffffffffffffffffffffffffffffff1673ffffffffffffffffffffffffffffffffffffffff16815260200190815260200160002090816115429190613166565b5050565b61154e611fde565b61155860006120eb565b565b3373ffffffffffffffffffffffffffffffffffffffff16611579611813565b73ffffffffffffffffffffffffffffffffffffffff1614806115ab57506115aa336001611fae90919063ffffffff16565b5b6115ea576040517f08c379a00000000000000000000000000000000000000000000000000000000081526004016115e190612f3a565b60405180910390fd5b80600360006101000a81548173ffffffffffffffffffffffffffffffffffffffff021916908373ffffffffffffffffffffffffffffffffffffffff16021790555050565b3373ffffffffffffffffffffffffffffffffffffffff1661164d611813565b73ffffffffffffffffffffffffffffffffffffffff16148061167f575061167e336001611fae90919063ffffffff16565b5b6116be576040517f08c379a00000000000000000000000000000000000000000000000000000000081526004016116b590612f3a565b60405180910390fd5b6040518060400160405280600581526020017f41646d696e000000000000000000000000000000000000000000000000000000815250600960003373ffffffffffffffffffffffffffffffffffffffff1673ffffffffffffffffffffffffffffffffffffffff168152602001908152602001600020908161173f9190613166565b50565b6060600960008373ffffffffffffffffffffffffffffffffffffffff1673ffffffffffffffffffffffffffffffffffffffff168152602001908152602001600020805461178e90612f89565b80601f01602080910402602001604051908101604052809291908181526020018280546117ba90612f89565b80156118075780601f106117dc57610100808354040283529160200191611807565b820191906000526020600020905b8154815290600101906020018083116117ea57829003601f168201915b50505050509050919050565b60008060009054906101000a900473ffffffffffffffffffffffffffffffffffffffff16905090565b3373ffffffffffffffffffffffffffffffffffffffff1661185b611813565b73ffffffffffffffffffffffffffffffffffffffff16148061188d575061188c336001611fae90919063ffffffff16565b5b6118cc576040517f08c379a00000000000000000000000000000000000000000000000000000000081526004016118c390612f3a565b60405180910390fd5b60008073ffffffffffffffffffffffffffffffffffffffff168473ffffffffffffffffffffffffffffffffffffffff1614611a18576040518060400160405280600581526020017f41646d696e00000000000000000000000000000000000000000000000000000081525051600960008673ffffffffffffffffffffffffffffffffffffffff1673ffffffffffffffffffffffffffffffffffffffff168152602001908152602001600020805461198290612f89565b9050146119c4576040517f08c379a00000000000000000000000000000000000000000000000000000000081526004016119bb906139a9565b60405180910390fd5b60405180602001604052808573ffffffffffffffffffffffffffffffffffffffff1673ffffffffffffffffffffffffffffffffffffffff168152506005906001611a0f929190612404565b50839050611a68565b60405180602001604052803373ffffffffffffffffffffffffffffffffffffffff1673ffffffffffffffffffffffffffffffffffffffff168152506005906001611a63929190612404565b503390505b8151835114611aac576040517f08c379a0000000000000000000000000000000000000000000000000000000008152600401611aa390613a15565b60405180910390fd5b60005b8351811015611be5576001600760008473ffffffffffffffffffffffffffffffffffffffff1673ffffffffffffffffffffffffffffffffffffffff1681526020019081526020016000206000828254611b0891906132ca565b92505081905550828181518110611b2257611b21612e22565b5b60200260200101516008600060045481526020019081526020016000209081611b4b9190613166565b5060008103611b8457600a6004549080600181540180825580915050600190039060005260206000200160009091909190915055611bb9565b60018103611bb857600b60045490806001815401808255809150506001900390600052602060002001600090919091909150555b5b60046000815480929190611bcc90612e80565b9190505550600181611bde91906132ca565b9050611aaf565b50600360009054906101000a900473ffffffffffffffffffffffffffffffffffffffff1673ffffffffffffffffffffffffffffffffffffffff16638c6e8472600585856040518463ffffffff1660e01b8152600401611c4693929190613a35565b6000604051808303816000875af1158015611c65573d6000803e3d6000fd5b505050506040513d6000823e3d601f19601f82011682018060405250810190611c8e919061363d565b5050505050565b60006001600454611ca69190613a81565b905090565b60608273ffffffffffffffffffffffffffffffffffffffff16600360009054906101000a900473ffffffffffffffffffffffffffffffffffffffff1673ffffffffffffffffffffffffffffffffffffffff1614611d3d576040517f08c379a0000000000000000000000000000000000000000000000000000000008152600401611d34906136d2565b60405180910390fd5b600860008381526020019081526020016000208054611d5b90612f89565b80601f0160208091040260200160405190810160405280929190818152602001828054611d8790612f89565b8015611dd45780601f10611da957610100808354040283529160200191611dd4565b820191906000526020600020905b815481529060010190602001808311611db757829003601f168201915b5050505050905092915050565b60608273ffffffffffffffffffffffffffffffffffffffff16600360009054906101000a900473ffffffffffffffffffffffffffffffffffffffff1673ffffffffffffffffffffffffffffffffffffffff1614611e73576040517f08c379a0000000000000000000000000000000000000000000000000000000008152600401611e6a906136d2565b60405180910390fd5b6040518060400160405280600d81526020017f546573742046756e6374696f6e00000000000000000000000000000000000000815250905092915050565b611eb9611fde565b600073ffffffffffffffffffffffffffffffffffffffff168173ffffffffffffffffffffffffffffffffffffffff1603611f28576040517f08c379a0000000000000000000000000000000000000000000000000000000008152600401611f1f90613b27565b60405180910390fd5b611f31816120eb565b50565b60007f553e757e000000000000000000000000000000000000000000000000000000007bffffffffffffffffffffffffffffffffffffffffffffffffffffffff1916827bffffffffffffffffffffffffffffffffffffffffffffffffffffffff19161480611fa75750611fa6826121af565b5b9050919050565b6000611fd6836000018373ffffffffffffffffffffffffffffffffffffffff1660001b612219565b905092915050565b611fe661223c565b73ffffffffffffffffffffffffffffffffffffffff16612004611813565b73ffffffffffffffffffffffffffffffffffffffff161461205a576040517f08c379a000000000000000000000000000000000000000000000000000000000815260040161205190613b93565b60405180910390fd5b565b6000612084836000018373ffffffffffffffffffffffffffffffffffffffff1660001b612244565b905092915050565b600061209a82600001612358565b9050919050565b60006120b08360000183612369565b60001c905092915050565b60006120e3836000018373ffffffffffffffffffffffffffffffffffffffff1660001b612394565b905092915050565b60008060009054906101000a900473ffffffffffffffffffffffffffffffffffffffff169050816000806101000a81548173ffffffffffffffffffffffffffffffffffffffff021916908373ffffffffffffffffffffffffffffffffffffffff1602179055508173ffffffffffffffffffffffffffffffffffffffff168173ffffffffffffffffffffffffffffffffffffffff167f8be0079c531659141344cd1fd0a4f28419497f9722a3daafe3b4186f6b6457e060405160405180910390a35050565b60007f01ffc9a7000000000000000000000000000000000000000000000000000000007bffffffffffffffffffffffffffffffffffffffffffffffffffffffff1916827bffffffffffffffffffffffffffffffffffffffffffffffffffffffff1916149050919050565b600080836001016000848152602001908152602001600020541415905092915050565b600033905090565b6000808360010160008481526020019081526020016000205490506000811461234c5760006001826122769190613a81565b905060006001866000018054905061228e9190613a81565b90508181146122fd5760008660000182815481106122af576122ae612e22565b5b90600052602060002001549050808760000184815481106122d3576122d2612e22565b5b90600052602060002001819055508387600101600083815260200190815260200160002081905550505b8560000180548061231157612310613bb3565b5b600190038181906000526020600020016000905590558560010160008681526020019081526020016000206000905560019350505050612352565b60009150505b92915050565b600081600001805490509050919050565b600082600001828154811061238157612380612e22565b5b9060005260206000200154905092915050565b60006123a08383612219565b6123f95782600001829080600181540180825580915050600190039060005260206000200160009091909190915055826000018054905083600101600084815260200190815260200160002081905550600190506123fe565b600090505b92915050565b82805482825590600052602060002090810192821561247d579160200282015b8281111561247c5782518260006101000a81548173ffffffffffffffffffffffffffffffffffffffff021916908373ffffffffffffffffffffffffffffffffffffffff16021790555091602001919060010190612424565b5b50905061248a91906124e7565b5090565b8280548282559060005260206000209081019282156124d6579160200282015b828111156124d55782518290816124c59190613166565b50916020019190600101906124ae565b5b5090506124e39190612504565b5090565b5b808211156125005760008160009055506001016124e8565b5090565b5b80821115612524576000818161251b9190612528565b50600101612505565b5090565b50805461253490612f89565b6000825580601f106125465750612565565b601f01602090049060005260206000209081019061256491906124e7565b5b50565b6000604051905090565b600080fd5b600080fd5b60007fffffffff0000000000000000000000000000000000000000000000000000000082169050919050565b6125b18161257c565b81146125bc57600080fd5b50565b6000813590506125ce816125a8565b92915050565b6000602082840312156125ea576125e9612572565b5b60006125f8848285016125bf565b91505092915050565b60008115159050919050565b61261681612601565b82525050565b6000602082019050612631600083018461260d565b92915050565b600073ffffffffffffffffffffffffffffffffffffffff82169050919050565b600061266282612637565b9050919050565b61267281612657565b811461267d57600080fd5b50565b60008135905061268f81612669565b92915050565b6000602082840312156126ab576126aa612572565b5b60006126b984828501612680565b91505092915050565b6000819050919050565b6126d5816126c2565b82525050565b60006020820190506126f060008301846126cc565b92915050565b600081519050919050565b600082825260208201905092915050565b6000819050602082019050919050565b61272b816126c2565b82525050565b600061273d8383612722565b60208301905092915050565b6000602082019050919050565b6000612761826126f6565b61276b8185612701565b935061277683612712565b8060005b838110156127a757815161278e8882612731565b975061279983612749565b92505060018101905061277a565b5085935050505092915050565b600060208201905081810360008301526127ce8184612756565b905092915050565b600081519050919050565b600082825260208201905092915050565b6000819050602082019050919050565b61280b81612657565b82525050565b600061281d8383612802565b60208301905092915050565b6000602082019050919050565b6000612841826127d6565b61284b81856127e1565b9350612856836127f2565b8060005b8381101561288757815161286e8882612811565b975061287983612829565b92505060018101905061285a565b5085935050505092915050565b600060208201905081810360008301526128ae8184612836565b905092915050565b600080fd5b600080fd5b6000601f19601f8301169050919050565b7f4e487b7100000000000000000000000000000000000000000000000000000000600052604160045260246000fd5b612909826128c0565b810181811067ffffffffffffffff82111715612928576129276128d1565b5b80604052505050565b600061293b612568565b90506129478282612900565b919050565b600067ffffffffffffffff821115612967576129666128d1565b5b612970826128c0565b9050602081019050919050565b82818337600083830152505050565b600061299f61299a8461294c565b612931565b9050828152602081018484840111156129bb576129ba6128bb565b5b6129c684828561297d565b509392505050565b600082601f8301126129e3576129e26128b6565b5b81356129f384826020860161298c565b91505092915050565b600067ffffffffffffffff821115612a1757612a166128d1565b5b602082029050602081019050919050565b600080fd5b612a36816126c2565b8114612a4157600080fd5b50565b600081359050612a5381612a2d565b92915050565b6000612a6c612a67846129fc565b612931565b90508083825260208201905060208402830185811115612a8f57612a8e612a28565b5b835b81811015612ab85780612aa48882612a44565b845260208401935050602081019050612a91565b5050509392505050565b600082601f830112612ad757612ad66128b6565b5b8135612ae7848260208601612a59565b91505092915050565b60008060008060808587031215612b0a57612b09612572565b5b6000612b1887828801612680565b945050602085013567ffffffffffffffff811115612b3957612b38612577565b5b612b45878288016129ce565b935050604085013567ffffffffffffffff811115612b6657612b65612577565b5b612b7287828801612ac2565b925050606085013567ffffffffffffffff811115612b9357612b92612577565b5b612b9f878288016129ce565b91505092959194509250565b600067ffffffffffffffff821115612bc657612bc56128d1565b5b602082029050602081019050919050565b6000612bea612be584612bab565b612931565b90508083825260208201905060208402830185811115612c0d57612c0c612a28565b5b835b81811015612c5457803567ffffffffffffffff811115612c3257612c316128b6565b5b808601612c3f89826129ce565b85526020850194505050602081019050612c0f565b5050509392505050565b600082601f830112612c7357612c726128b6565b5b8135612c83848260208601612bd7565b91505092915050565b600080600060608486031215612ca557612ca4612572565b5b6000612cb386828701612680565b935050602084013567ffffffffffffffff811115612cd457612cd3612577565b5b612ce086828701612ac2565b925050604084013567ffffffffffffffff811115612d0157612d00612577565b5b612d0d86828701612c5e565b9150509250925092565b600081519050919050565b600082825260208201905092915050565b60005b83811015612d51578082015181840152602081019050612d36565b60008484015250505050565b6000612d6882612d17565b612d728185612d22565b9350612d82818560208601612d33565b612d8b816128c0565b840191505092915050565b60006020820190508181036000830152612db08184612d5d565b905092915050565b612dc181612657565b82525050565b6000602082019050612ddc6000830184612db8565b92915050565b60008060408385031215612df957612df8612572565b5b6000612e0785828601612680565b9250506020612e1885828601612a44565b9150509250929050565b7f4e487b7100000000000000000000000000000000000000000000000000000000600052603260045260246000fd5b7f4e487b7100000000000000000000000000000000000000000000000000000000600052601160045260246000fd5b6000612e8b826126c2565b91507fffffffffffffffffffffffffffffffffffffffffffffffffffffffffffffffff8203612ebd57612ebc612e51565b5b600182019050919050565b7f41646d696e436f6e74726f6c3a204d757374206265206f776e6572206f72206160008201527f646d696e00000000000000000000000000000000000000000000000000000000602082015250565b6000612f24602483612d22565b9150612f2f82612ec8565b604082019050919050565b60006020820190508181036000830152612f5381612f17565b9050919050565b7f4e487b7100000000000000000000000000000000000000000000000000000000600052602260045260246000fd5b60006002820490506001821680612fa157607f821691505b602082108103612fb457612fb3612f5a565b5b50919050565b60008190508160005260206000209050919050565b60006020601f8301049050919050565b600082821b905092915050565b60006008830261301c7fffffffffffffffffffffffffffffffffffffffffffffffffffffffffffffffff82612fdf565b6130268683612fdf565b95508019841693508086168417925050509392505050565b6000819050919050565b600061306361305e613059846126c2565b61303e565b6126c2565b9050919050565b6000819050919050565b61307d83613048565b6130916130898261306a565b848454612fec565b825550505050565b600090565b6130a6613099565b6130b1818484613074565b505050565b5b818110156130d5576130ca60008261309e565b6001810190506130b7565b5050565b601f82111561311a576130eb81612fba565b6130f484612fcf565b81016020851015613103578190505b61311761310f85612fcf565b8301826130b6565b50505b505050565b600082821c905092915050565b600061313d6000198460080261311f565b1980831691505092915050565b6000613156838361312c565b9150826002028217905092915050565b61316f82612d17565b67ffffffffffffffff811115613188576131876128d1565b5b6131928254612f89565b61319d8282856130d9565b600060209050601f8311600181146131d057600084156131be578287015190505b6131c8858261314a565b865550613230565b601f1984166131de86612fba565b60005b82811015613206578489015182556001820191506020850194506020810190506131e1565b86831015613223578489015161321f601f89168261312c565b8355505b6001600288020188555050505b505050505050565b7f4d696e74696e67207468652077726f6e6720746f6b656e207479706520666f7260008201527f2074686520737065636966696564206164647265737300000000000000000000602082015250565b6000613294603683612d22565b915061329f82613238565b604082019050919050565b600060208201905081810360008301526132c381613287565b9050919050565b60006132d5826126c2565b91506132e0836126c2565b92508282019050808211156132f8576132f7612e51565b5b92915050565b600081549050919050565b60008190508160005260206000209050919050565b60008160001c9050919050565b600073ffffffffffffffffffffffffffffffffffffffff82169050919050565b600061335e6133598361331e565b61332b565b9050919050565b6000613371825461334b565b9050919050565b6000600182019050919050565b6000613390826132fe565b61339a81856127e1565b93506133a583613309565b8060005b838110156133dd576133ba82613365565b6133c48882612811565b97506133cf83613378565b9250506001810190506133a9565b5085935050505092915050565b600081549050919050565b600082825260208201905092915050565b60008190508160005260206000209050919050565b600082825260208201905092915050565b6000815461343981612f89565b613443818661341b565b9450600182166000811461345e5760018114613474576134a7565b60ff1983168652811515602002860193506134a7565b61347d85612fba565b60005b8381101561349f57815481890152600182019150602081019050613480565b808801955050505b50505092915050565b60006134bc838361342c565b905092915050565b6000600182019050919050565b60006134dc826133ea565b6134e681856133f5565b9350836020820285016134f885613406565b8060005b858110156135335784840389528161351485826134b0565b945061351f836134c4565b925060208a019950506001810190506134fc565b50829750879550505050505092915050565b6000606082019050818103600083015261355f8186613385565b905081810360208301526135738185612756565b9050818103604083015261358781846134d1565b9050949350505050565b6000815190506135a081612a2d565b92915050565b60006135b96135b4846129fc565b612931565b905080838252602082019050602084028301858111156135dc576135db612a28565b5b835b8181101561360557806135f18882613591565b8452602084019350506020810190506135de565b5050509392505050565b600082601f830112613624576136236128b6565b5b81516136348482602086016135a6565b91505092915050565b60006020828403121561365357613652612572565b5b600082015167ffffffffffffffff81111561367157613670612577565b5b61367d8482850161360f565b91505092915050565b7f4e6f74206f776e65720000000000000000000000000000000000000000000000600082015250565b60006136bc600983612d22565b91506136c782613686565b602082019050919050565b600060208201905081810360008301526136eb816136af565b9050919050565b7f4561636820746f6b656e204944206d7573742068617665206120746f6b656e2060008201527f5552490000000000000000000000000000000000000000000000000000000000602082015250565b600061374e602383612d22565b9150613759826136f2565b604082019050919050565b6000602082019050818103600083015261377d81613741565b9050919050565b600081519050919050565b6000819050602082019050919050565b60006137aa82612d17565b6137b4818561341b565b93506137c4818560208601612d33565b6137cd816128c0565b840191505092915050565b60006137e4838361379f565b905092915050565b6000602082019050919050565b600061380482613784565b61380e81856133f5565b9350836020820285016138208561378f565b8060005b8581101561385c578484038952815161383d85826137d8565b9450613848836137ec565b925060208a01995050600181019050613824565b50829750879550505050505092915050565b600060408201905081810360008301526138888185612756565b9050818103602083015261389c81846137f9565b90509392505050565b7f4f6e6c7920616e2061646d696e6973747261746f722063616e20616464206d6f60008201527f72652061646d696e6973747261746f7273000000000000000000000000000000602082015250565b6000613901603183612d22565b915061390c826138a5565b604082019050919050565b60006020820190508181036000830152613930816138f4565b9050919050565b7f4d756c7469706c6520746f6b656e7320617265206f6e6c7920616c6c6f77656460008201527f20666f722061646d696e6973747261746f727300000000000000000000000000602082015250565b6000613993603383612d22565b915061399e82613937565b604082019050919050565b600060208201905081810360008301526139c281613986565b9050919050565b7f4561636820746f6b656e204d5553542068617665206120746f6b656e55524900600082015250565b60006139ff601f83612d22565b9150613a0a826139c9565b602082019050919050565b60006020820190508181036000830152613a2e816139f2565b9050919050565b60006060820190508181036000830152613a4f8186613385565b90508181036020830152613a638185612756565b90508181036040830152613a7781846137f9565b9050949350505050565b6000613a8c826126c2565b9150613a97836126c2565b9250828203905081811115613aaf57613aae612e51565b5b92915050565b7f4f776e61626c653a206e6577206f776e657220697320746865207a65726f206160008201527f6464726573730000000000000000000000000000000000000000000000000000602082015250565b6000613b11602683612d22565b9150613b1c82613ab5565b604082019050919050565b60006020820190508181036000830152613b4081613b04565b9050919050565b7f4f776e61626c653a2063616c6c6572206973206e6f7420746865206f776e6572600082015250565b6000613b7d602083612d22565b9150613b8882613b47565b602082019050919050565b60006020820190508181036000830152613bac81613b70565b9050919050565b7f4e487b7100000000000000000000000000000000000000000000000000000000600052603160045260246000fdfea264697066735822122051ff2eaed45f71b1c757743476471c09ee3156c762577457c1f7f823060b711064736f6c63430008110033",
  "linkReferences": {},
  "deployedLinkReferences": {}
}