{
  "_format": "hh-sol-artifact-1",
  "contractName": "Token",
  "sourceName": "contracts/Token.sol",
  "abi": [
    {
      "anonymous": false,
      "inputs": [
        {
          "indexed": true,
          "internalType": "address",
          "name": "account",
          "type": "address"
        },
        {
          "indexed": true,
          "internalType": "address",
          "name": "sender",
          "type": "address"
        }
      ],
      "name": "AdminApproved",
      "type": "event"
    },
    {
      "anonymous": false,
      "inputs": [
        {
          "indexed": true,
          "internalType": "address",
          "name": "account",
          "type": "address"
        },
        {
          "indexed": true,
          "internalType": "address",
          "name": "sender",
          "type": "address"
        }
      ],
      "name": "AdminRevoked",
      "type": "event"
    },
    {
      "anonymous": false,
      "inputs": [
        {
          "indexed": true,
          "internalType": "address",
          "name": "previousOwner",
          "type": "address"
        },
        {
          "indexed": true,
          "internalType": "address",
          "name": "newOwner",
          "type": "address"
        }
      ],
      "name": "OwnershipTransferred",
      "type": "event"
    },
    {
      "inputs": [
        {
          "internalType": "uint256",
          "name": "",
          "type": "uint256"
        }
      ],
      "name": "URIMap",
      "outputs": [
        {
          "internalType": "string",
          "name": "",
          "type": "string"
        }
      ],
      "stateMutability": "view",
      "type": "function"
    },
    {
      "inputs": [
        {
          "internalType": "address",
          "name": "admin",
          "type": "address"
        }
      ],
      "name": "approveAdmin",
      "outputs": [],
      "stateMutability": "nonpayable",
      "type": "function"
    },
    {
      "inputs": [],
      "name": "getAdmins",
      "outputs": [
        {
          "internalType": "address[]",
          "name": "admins",
          "type": "address[]"
        }
      ],
      "stateMutability": "view",
      "type": "function"
    },
    {
      "inputs": [
        {
          "internalType": "address",
          "name": "core",
          "type": "address"
        },
        {
          "internalType": "string",
          "name": "uri",
          "type": "string"
        }
      ],
      "name": "initialize",
      "outputs": [],
      "stateMutability": "nonpayable",
      "type": "function"
    },
    {
      "inputs": [
        {
          "internalType": "address",
          "name": "admin",
          "type": "address"
        }
      ],
      "name": "isAdmin",
      "outputs": [
        {
          "internalType": "bool",
          "name": "",
          "type": "bool"
        }
      ],
      "stateMutability": "view",
      "type": "function"
    },
    {
      "inputs": [],
      "name": "owner",
      "outputs": [
        {
          "internalType": "address",
          "name": "",
          "type": "address"
        }
      ],
      "stateMutability": "view",
      "type": "function"
    },
    {
      "inputs": [],
      "name": "renounceOwnership",
      "outputs": [],
      "stateMutability": "nonpayable",
      "type": "function"
    },
    {
      "inputs": [
        {
          "internalType": "address",
          "name": "admin",
          "type": "address"
        }
      ],
      "name": "revokeAdmin",
      "outputs": [],
      "stateMutability": "nonpayable",
      "type": "function"
    },
    {
      "inputs": [
        {
          "internalType": "address",
          "name": "core",
          "type": "address"
        },
        {
          "internalType": "uint256",
          "name": "tokenId",
          "type": "uint256"
        },
        {
          "internalType": "string",
          "name": "jsonURL",
          "type": "string"
        }
      ],
      "name": "setURI",
      "outputs": [],
      "stateMutability": "nonpayable",
      "type": "function"
    },
    {
      "inputs": [
        {
          "internalType": "bytes4",
          "name": "interfaceId",
          "type": "bytes4"
        }
      ],
      "name": "supportsInterface",
      "outputs": [
        {
          "internalType": "bool",
          "name": "",
          "type": "bool"
        }
      ],
      "stateMutability": "view",
      "type": "function"
    },
    {
      "inputs": [
        {
          "internalType": "address",
          "name": "core",
          "type": "address"
        },
        {
          "internalType": "uint256",
          "name": "tokenId",
          "type": "uint256"
        }
      ],
      "name": "tokenURI",
      "outputs": [
        {
          "internalType": "string",
          "name": "",
          "type": "string"
        }
      ],
      "stateMutability": "view",
      "type": "function"
    },
    {
      "inputs": [
        {
          "internalType": "address",
          "name": "newOwner",
          "type": "address"
        }
      ],
      "name": "transferOwnership",
      "outputs": [],
      "stateMutability": "nonpayable",
      "type": "function"
    }
  ],
  "bytecode": "0x608060405234801561001057600080fd5b5061002d61002261003260201b60201c565b61003a60201b60201c565b6100fe565b600033905090565b60008060009054906101000a900473ffffffffffffffffffffffffffffffffffffffff169050816000806101000a81548173ffffffffffffffffffffffffffffffffffffffff021916908373ffffffffffffffffffffffffffffffffffffffff1602179055508173ffffffffffffffffffffffffffffffffffffffff168173ffffffffffffffffffffffffffffffffffffffff167f8be0079c531659141344cd1fd0a4f28419497f9722a3daafe3b4186f6b6457e060405160405180910390a35050565b611c6c8061010d6000396000f3fe608060405234801561001057600080fd5b50600436106100b45760003560e01c8063715018a611610071578063715018a61461018b5780638da5cb5b14610195578063b774499f146101b3578063e9dc6375146101e3578063f2fde38b14610213578063f399e22e1461022f576100b4565b806301ffc9a7146100b957806324d7806c146100e95780632d3456701461011957806331ae450b14610135578063685e8247146101535780636d73e6691461016f575b600080fd5b6100d360048036038101906100ce9190611055565b61024b565b6040516100e0919061109d565b60405180910390f35b61010360048036038101906100fe9190611116565b6102d5565b604051610110919061109d565b60405180910390f35b610133600480360381019061012e9190611116565b61032f565b005b61013d6103c3565b60405161014a9190611201565b60405180910390f35b61016d6004803603810190610168919061139f565b6104a5565b005b61018960048036038101906101849190611116565b61067a565b005b61019361070d565b005b61019d610721565b6040516101aa919061141d565b60405180910390f35b6101cd60048036038101906101c89190611438565b61074a565b6040516101da91906114e4565b60405180910390f35b6101fd60048036038101906101f89190611506565b6107ea565b60405161020a91906114e4565b60405180910390f35b61022d60048036038101906102289190611116565b610920565b005b61024960048036038101906102449190611546565b6109a3565b005b60007fe9dc6375000000000000000000000000000000000000000000000000000000007bffffffffffffffffffffffffffffffffffffffffffffffffffffffff1916827bffffffffffffffffffffffffffffffffffffffffffffffffffffffff191614806102be57506102bd82610b19565b5b806102ce57506102cd82610b19565b5b9050919050565b60008173ffffffffffffffffffffffffffffffffffffffff166102f6610721565b73ffffffffffffffffffffffffffffffffffffffff1614806103285750610327826001610b9390919063ffffffff16565b5b9050919050565b610337610bc3565b61034b816001610b9390919063ffffffff16565b156103c0573373ffffffffffffffffffffffffffffffffffffffff168173ffffffffffffffffffffffffffffffffffffffff167f7c0c3c84c67c85fcac635147348bfe374c24a1a93d0366d1cfe9d8853cbf89d560405160405180910390a36103be816001610c4190919063ffffffff16565b505b50565b60606103cf6001610c71565b67ffffffffffffffff8111156103e8576103e7611274565b5b6040519080825280602002602001820160405280156104165781602001602082028036833780820191505090505b50905060005b6104266001610c71565b8110156104a157610441816001610c8690919063ffffffff16565b828281518110610454576104536115a2565b5b602002602001019073ffffffffffffffffffffffffffffffffffffffff16908173ffffffffffffffffffffffffffffffffffffffff1681525050808061049990611600565b91505061041c565b5090565b3373ffffffffffffffffffffffffffffffffffffffff166104c4610721565b73ffffffffffffffffffffffffffffffffffffffff1614806104f657506104f5336001610b9390919063ffffffff16565b5b610535576040517f08c379a000000000000000000000000000000000000000000000000000000000815260040161052c906116ba565b60405180910390fd5b8273ffffffffffffffffffffffffffffffffffffffff16600360009054906101000a900473ffffffffffffffffffffffffffffffffffffffff1673ffffffffffffffffffffffffffffffffffffffff16146105c5576040517f08c379a00000000000000000000000000000000000000000000000000000000081526004016105bc90611726565b60405180910390fd5b806005600084815260200190815260200160002090816105e59190611952565b50600360009054906101000a900473ffffffffffffffffffffffffffffffffffffffff1673ffffffffffffffffffffffffffffffffffffffff1663e92a89f683836040518363ffffffff1660e01b8152600401610643929190611a33565b600060405180830381600087803b15801561065d57600080fd5b505af1158015610671573d6000803e3d6000fd5b50505050505050565b610682610bc3565b610696816001610b9390919063ffffffff16565b61070a573373ffffffffffffffffffffffffffffffffffffffff168173ffffffffffffffffffffffffffffffffffffffff167f7e1a1a08d52e4ba0e21554733d66165fd5151f99460116223d9e3a608eec5cb160405160405180910390a3610708816001610ca090919063ffffffff16565b505b50565b610715610bc3565b61071f6000610cd0565b565b60008060009054906101000a900473ffffffffffffffffffffffffffffffffffffffff16905090565b6005602052806000526040600020600091509050805461076990611775565b80601f016020809104026020016040519081016040528092919081815260200182805461079590611775565b80156107e25780601f106107b7576101008083540402835291602001916107e2565b820191906000526020600020905b8154815290600101906020018083116107c557829003601f168201915b505050505081565b60608273ffffffffffffffffffffffffffffffffffffffff16600360009054906101000a900473ffffffffffffffffffffffffffffffffffffffff1673ffffffffffffffffffffffffffffffffffffffff161461087c576040517f08c379a000000000000000000000000000000000000000000000000000000000815260040161087390611726565b60405180910390fd5b60056000838152602001908152602001600020805461089a90611775565b80601f01602080910402602001604051908101604052809291908181526020018280546108c690611775565b80156109135780601f106108e857610100808354040283529160200191610913565b820191906000526020600020905b8154815290600101906020018083116108f657829003601f168201915b5050505050905092915050565b610928610bc3565b600073ffffffffffffffffffffffffffffffffffffffff168173ffffffffffffffffffffffffffffffffffffffff1603610997576040517f08c379a000000000000000000000000000000000000000000000000000000000815260040161098e90611ad5565b60405180910390fd5b6109a081610cd0565b50565b3373ffffffffffffffffffffffffffffffffffffffff166109c2610721565b73ffffffffffffffffffffffffffffffffffffffff1614806109f457506109f3336001610b9390919063ffffffff16565b5b610a33576040517f08c379a0000000000000000000000000000000000000000000000000000000008152600401610a2a906116ba565b60405180910390fd5b81600360006101000a81548173ffffffffffffffffffffffffffffffffffffffff021916908373ffffffffffffffffffffffffffffffffffffffff160217905550600360009054906101000a900473ffffffffffffffffffffffffffffffffffffffff1673ffffffffffffffffffffffffffffffffffffffff1663fe2e1f5833836040518363ffffffff1660e01b8152600401610ad1929190611af5565b6020604051808303816000875af1158015610af0573d6000803e3d6000fd5b505050506040513d601f19601f82011682018060405250810190610b149190611b3a565b505050565b60007f553e757e000000000000000000000000000000000000000000000000000000007bffffffffffffffffffffffffffffffffffffffffffffffffffffffff1916827bffffffffffffffffffffffffffffffffffffffffffffffffffffffff19161480610b8c5750610b8b82610d94565b5b9050919050565b6000610bbb836000018373ffffffffffffffffffffffffffffffffffffffff1660001b610dfe565b905092915050565b610bcb610e21565b73ffffffffffffffffffffffffffffffffffffffff16610be9610721565b73ffffffffffffffffffffffffffffffffffffffff1614610c3f576040517f08c379a0000000000000000000000000000000000000000000000000000000008152600401610c3690611bb3565b60405180910390fd5b565b6000610c69836000018373ffffffffffffffffffffffffffffffffffffffff1660001b610e29565b905092915050565b6000610c7f82600001610f3d565b9050919050565b6000610c958360000183610f4e565b60001c905092915050565b6000610cc8836000018373ffffffffffffffffffffffffffffffffffffffff1660001b610f79565b905092915050565b60008060009054906101000a900473ffffffffffffffffffffffffffffffffffffffff169050816000806101000a81548173ffffffffffffffffffffffffffffffffffffffff021916908373ffffffffffffffffffffffffffffffffffffffff1602179055508173ffffffffffffffffffffffffffffffffffffffff168173ffffffffffffffffffffffffffffffffffffffff167f8be0079c531659141344cd1fd0a4f28419497f9722a3daafe3b4186f6b6457e060405160405180910390a35050565b60007f01ffc9a7000000000000000000000000000000000000000000000000000000007bffffffffffffffffffffffffffffffffffffffffffffffffffffffff1916827bffffffffffffffffffffffffffffffffffffffffffffffffffffffff1916149050919050565b600080836001016000848152602001908152602001600020541415905092915050565b600033905090565b60008083600101600084815260200190815260200160002054905060008114610f31576000600182610e5b9190611bd3565b9050600060018660000180549050610e739190611bd3565b9050818114610ee2576000866000018281548110610e9457610e936115a2565b5b9060005260206000200154905080876000018481548110610eb857610eb76115a2565b5b90600052602060002001819055508387600101600083815260200190815260200160002081905550505b85600001805480610ef657610ef5611c07565b5b600190038181906000526020600020016000905590558560010160008681526020019081526020016000206000905560019350505050610f37565b60009150505b92915050565b600081600001805490509050919050565b6000826000018281548110610f6657610f656115a2565b5b9060005260206000200154905092915050565b6000610f858383610dfe565b610fde578260000182908060018154018082558091505060019003906000526020600020016000909190919091505582600001805490508360010160008481526020019081526020016000208190555060019050610fe3565b600090505b92915050565b6000604051905090565b600080fd5b600080fd5b60007fffffffff0000000000000000000000000000000000000000000000000000000082169050919050565b61103281610ffd565b811461103d57600080fd5b50565b60008135905061104f81611029565b92915050565b60006020828403121561106b5761106a610ff3565b5b600061107984828501611040565b91505092915050565b60008115159050919050565b61109781611082565b82525050565b60006020820190506110b2600083018461108e565b92915050565b600073ffffffffffffffffffffffffffffffffffffffff82169050919050565b60006110e3826110b8565b9050919050565b6110f3816110d8565b81146110fe57600080fd5b50565b600081359050611110816110ea565b92915050565b60006020828403121561112c5761112b610ff3565b5b600061113a84828501611101565b91505092915050565b600081519050919050565b600082825260208201905092915050565b6000819050602082019050919050565b611178816110d8565b82525050565b600061118a838361116f565b60208301905092915050565b6000602082019050919050565b60006111ae82611143565b6111b8818561114e565b93506111c38361115f565b8060005b838110156111f45781516111db888261117e565b97506111e683611196565b9250506001810190506111c7565b5085935050505092915050565b6000602082019050818103600083015261121b81846111a3565b905092915050565b6000819050919050565b61123681611223565b811461124157600080fd5b50565b6000813590506112538161122d565b92915050565b600080fd5b600080fd5b6000601f19601f8301169050919050565b7f4e487b7100000000000000000000000000000000000000000000000000000000600052604160045260246000fd5b6112ac82611263565b810181811067ffffffffffffffff821117156112cb576112ca611274565b5b80604052505050565b60006112de610fe9565b90506112ea82826112a3565b919050565b600067ffffffffffffffff82111561130a57611309611274565b5b61131382611263565b9050602081019050919050565b82818337600083830152505050565b600061134261133d846112ef565b6112d4565b90508281526020810184848401111561135e5761135d61125e565b5b611369848285611320565b509392505050565b600082601f83011261138657611385611259565b5b813561139684826020860161132f565b91505092915050565b6000806000606084860312156113b8576113b7610ff3565b5b60006113c686828701611101565b93505060206113d786828701611244565b925050604084013567ffffffffffffffff8111156113f8576113f7610ff8565b5b61140486828701611371565b9150509250925092565b611417816110d8565b82525050565b6000602082019050611432600083018461140e565b92915050565b60006020828403121561144e5761144d610ff3565b5b600061145c84828501611244565b91505092915050565b600081519050919050565b600082825260208201905092915050565b60005b8381101561149f578082015181840152602081019050611484565b60008484015250505050565b60006114b682611465565b6114c08185611470565b93506114d0818560208601611481565b6114d981611263565b840191505092915050565b600060208201905081810360008301526114fe81846114ab565b905092915050565b6000806040838503121561151d5761151c610ff3565b5b600061152b85828601611101565b925050602061153c85828601611244565b9150509250929050565b6000806040838503121561155d5761155c610ff3565b5b600061156b85828601611101565b925050602083013567ffffffffffffffff81111561158c5761158b610ff8565b5b61159885828601611371565b9150509250929050565b7f4e487b7100000000000000000000000000000000000000000000000000000000600052603260045260246000fd5b7f4e487b7100000000000000000000000000000000000000000000000000000000600052601160045260246000fd5b600061160b82611223565b91507fffffffffffffffffffffffffffffffffffffffffffffffffffffffffffffffff820361163d5761163c6115d1565b5b600182019050919050565b7f41646d696e436f6e74726f6c3a204d757374206265206f776e6572206f72206160008201527f646d696e00000000000000000000000000000000000000000000000000000000602082015250565b60006116a4602483611470565b91506116af82611648565b604082019050919050565b600060208201905081810360008301526116d381611697565b9050919050565b7f4e6f74206f776e65720000000000000000000000000000000000000000000000600082015250565b6000611710600983611470565b915061171b826116da565b602082019050919050565b6000602082019050818103600083015261173f81611703565b9050919050565b7f4e487b7100000000000000000000000000000000000000000000000000000000600052602260045260246000fd5b6000600282049050600182168061178d57607f821691505b6020821081036117a05761179f611746565b5b50919050565b60008190508160005260206000209050919050565b60006020601f8301049050919050565b600082821b905092915050565b6000600883026118087fffffffffffffffffffffffffffffffffffffffffffffffffffffffffffffffff826117cb565b61181286836117cb565b95508019841693508086168417925050509392505050565b6000819050919050565b600061184f61184a61184584611223565b61182a565b611223565b9050919050565b6000819050919050565b61186983611834565b61187d61187582611856565b8484546117d8565b825550505050565b600090565b611892611885565b61189d818484611860565b505050565b5b818110156118c1576118b660008261188a565b6001810190506118a3565b5050565b601f821115611906576118d7816117a6565b6118e0846117bb565b810160208510156118ef578190505b6119036118fb856117bb565b8301826118a2565b50505b505050565b600082821c905092915050565b60006119296000198460080261190b565b1980831691505092915050565b60006119428383611918565b9150826002028217905092915050565b61195b82611465565b67ffffffffffffffff81111561197457611973611274565b5b61197e8254611775565b6119898282856118c5565b600060209050601f8311600181146119bc57600084156119aa578287015190505b6119b48582611936565b865550611a1c565b601f1984166119ca866117a6565b60005b828110156119f2578489015182556001820191506020850194506020810190506119cd565b86831015611a0f5784890151611a0b601f891682611918565b8355505b6001600288020188555050505b505050505050565b611a2d81611223565b82525050565b6000604082019050611a486000830185611a24565b8181036020830152611a5a81846114ab565b90509392505050565b7f4f776e61626c653a206e6577206f776e657220697320746865207a65726f206160008201527f6464726573730000000000000000000000000000000000000000000000000000602082015250565b6000611abf602683611470565b9150611aca82611a63565b604082019050919050565b60006020820190508181036000830152611aee81611ab2565b9050919050565b6000604082019050611b0a600083018561140e565b8181036020830152611b1c81846114ab565b90509392505050565b600081519050611b348161122d565b92915050565b600060208284031215611b5057611b4f610ff3565b5b6000611b5e84828501611b25565b91505092915050565b7f4f776e61626c653a2063616c6c6572206973206e6f7420746865206f776e6572600082015250565b6000611b9d602083611470565b9150611ba882611b67565b602082019050919050565b60006020820190508181036000830152611bcc81611b90565b9050919050565b6000611bde82611223565b9150611be983611223565b9250828203905081811115611c0157611c006115d1565b5b92915050565b7f4e487b7100000000000000000000000000000000000000000000000000000000600052603160045260246000fdfea2646970667358221220694d1a6fd294caa7f9069107b9b45fb76f9fc59e503195e819441bb9b07fad8764736f6c63430008110033",
  "linkReferences": {},
  "deployedLinkReferences": {}
}