{
  "_format": "hh-sol-artifact-1",
  "contractName": "PROPEL",
  "sourceName": "contracts/PROPEL.sol",
  "abi": [
    {
      "inputs": [
        {
          "internalType": "uint256",
          "name": "totalFunds",
          "type": "uint256"
        }
      ],
      "stateMutability": "nonpayable",
      "type": "constructor"
    },
    {
      "anonymous": false,
      "inputs": [
        {
          "indexed": true,
          "internalType": "address",
          "name": "from",
          "type": "address"
        },
        {
          "indexed": true,
          "internalType": "address",
          "name": "to",
          "type": "address"
        },
        {
          "indexed": false,
          "internalType": "uint256",
          "name": "amount",
          "type": "uint256"
        }
      ],
      "name": "TransferToken",
      "type": "event"
    },
    {
      "anonymous": false,
      "inputs": [
        {
          "indexed": true,
          "internalType": "address",
          "name": "from",
          "type": "address"
        },
        {
          "indexed": false,
          "internalType": "uint256",
          "name": "amount",
          "type": "uint256"
        },
        {
          "indexed": true,
          "internalType": "address",
          "name": "to",
          "type": "address"
        }
      ],
      "name": "TransferValue",
      "type": "event"
    },
    {
      "inputs": [
        {
          "internalType": "address",
          "name": "to",
          "type": "address"
        },
        {
          "internalType": "uint256",
          "name": "value",
          "type": "uint256"
        },
        {
          "internalType": "string",
          "name": "typeStr",
          "type": "string"
        }
      ],
      "name": "generateToken",
      "outputs": [],
      "stateMutability": "nonpayable",
      "type": "function"
    },
    {
      "inputs": [],
      "name": "getContractType",
      "outputs": [
        {
          "internalType": "string",
          "name": "typeStr",
          "type": "string"
        }
      ],
      "stateMutability": "view",
      "type": "function"
    },
    {
      "inputs": [
        {
          "internalType": "address",
          "name": "addr",
          "type": "address"
        }
      ],
      "name": "getID",
      "outputs": [
        {
          "internalType": "string",
          "name": "typeStr",
          "type": "string"
        }
      ],
      "stateMutability": "view",
      "type": "function"
    },
    {
      "inputs": [
        {
          "internalType": "address",
          "name": "addr",
          "type": "address"
        }
      ],
      "name": "getTokenValue",
      "outputs": [
        {
          "internalType": "uint256",
          "name": "value",
          "type": "uint256"
        }
      ],
      "stateMutability": "view",
      "type": "function"
    },
    {
      "inputs": [
        {
          "internalType": "address",
          "name": "addr",
          "type": "address"
        }
      ],
      "name": "getTypeOfAddr",
      "outputs": [
        {
          "internalType": "string",
          "name": "typeStr",
          "type": "string"
        }
      ],
      "stateMutability": "view",
      "type": "function"
    },
    {
      "inputs": [],
      "name": "name",
      "outputs": [
        {
          "internalType": "string",
          "name": "",
          "type": "string"
        }
      ],
      "stateMutability": "view",
      "type": "function"
    },
    {
      "inputs": [],
      "name": "owner",
      "outputs": [
        {
          "internalType": "address",
          "name": "",
          "type": "address"
        }
      ],
      "stateMutability": "view",
      "type": "function"
    },
    {
      "inputs": [],
      "name": "symbol",
      "outputs": [
        {
          "internalType": "string",
          "name": "",
          "type": "string"
        }
      ],
      "stateMutability": "view",
      "type": "function"
    },
    {
      "inputs": [
        {
          "internalType": "address",
          "name": "addr2",
          "type": "address"
        },
        {
          "internalType": "uint256",
          "name": "value",
          "type": "uint256"
        }
      ],
      "name": "transferValueBetween",
      "outputs": [],
      "stateMutability": "nonpayable",
      "type": "function"
    }
  ],
  "bytecode": "0x60806040526040518060400160405280600f81526020017f50726f70656c2056656e74757265730000000000000000000000000000000000815250600090816200004a9190620004d5565b506040518060400160405280600481526020017f5052504c0000000000000000000000000000000000000000000000000000000081525060019081620000919190620004d5565b506040518060400160405280600a81526020017f496e766573746d656e740000000000000000000000000000000000000000000081525060029081620000d89190620004d5565b50348015620000e657600080fd5b5060405162001c1d38038062001c1d83398181016040528101906200010c9190620005f2565b600060405180606001604052806040518060400160405280600581526020017f4f574e455200000000000000000000000000000000000000000000000000000081525081526020018381526020016040518060400160405280600581526020017f4f574e4552000000000000000000000000000000000000000000000000000000815250815250905080600460003373ffffffffffffffffffffffffffffffffffffffff1673ffffffffffffffffffffffffffffffffffffffff1681526020019081526020016000206000820151816000019081620001ec9190620004d5565b506020820151816001015560408201518160020190816200020e9190620004d5565b5090505033600360006101000a81548173ffffffffffffffffffffffffffffffffffffffff021916908373ffffffffffffffffffffffffffffffffffffffff160217905550505062000624565b600081519050919050565b7f4e487b7100000000000000000000000000000000000000000000000000000000600052604160045260246000fd5b7f4e487b7100000000000000000000000000000000000000000000000000000000600052602260045260246000fd5b60006002820490506001821680620002dd57607f821691505b602082108103620002f357620002f262000295565b5b50919050565b60008190508160005260206000209050919050565b60006020601f8301049050919050565b600082821b905092915050565b6000600883026200035d7fffffffffffffffffffffffffffffffffffffffffffffffffffffffffffffffff826200031e565b6200036986836200031e565b95508019841693508086168417925050509392505050565b6000819050919050565b6000819050919050565b6000620003b6620003b0620003aa8462000381565b6200038b565b62000381565b9050919050565b6000819050919050565b620003d28362000395565b620003ea620003e182620003bd565b8484546200032b565b825550505050565b600090565b62000401620003f2565b6200040e818484620003c7565b505050565b5b8181101562000436576200042a600082620003f7565b60018101905062000414565b5050565b601f82111562000485576200044f81620002f9565b6200045a846200030e565b810160208510156200046a578190505b6200048262000479856200030e565b83018262000413565b50505b505050565b600082821c905092915050565b6000620004aa600019846008026200048a565b1980831691505092915050565b6000620004c5838362000497565b9150826002028217905092915050565b620004e0826200025b565b67ffffffffffffffff811115620004fc57620004fb62000266565b5b620005088254620002c4565b620005158282856200043a565b600060209050601f8311600181146200054d576000841562000538578287015190505b620005448582620004b7565b865550620005b4565b601f1984166200055d86620002f9565b60005b82811015620005875784890151825560018201915060208501945060208101905062000560565b86831015620005a75784890151620005a3601f89168262000497565b8355505b6001600288020188555050505b505050505050565b600080fd5b620005cc8162000381565b8114620005d857600080fd5b50565b600081519050620005ec81620005c1565b92915050565b6000602082840312156200060b576200060a620005bc565b5b60006200061b84828501620005db565b91505092915050565b6115e980620006346000396000f3fe608060405234801561001057600080fd5b50600436106100935760003560e01c806399f826a51161006657806399f826a51461010e578063c51a29e01461013e578063f1c5d6c21461015c578063fa1c181a1461018c578063fda64dbf146101bc57610093565b806306fdde03146100985780635582fadd146100b65780638da5cb5b146100d257806395d89b41146100f0575b600080fd5b6100a06101d8565b6040516100ad9190610d52565b60405180910390f35b6100d060048036038101906100cb9190610f51565b610266565b005b6100da6103f5565b6040516100e79190610fcf565b60405180910390f35b6100f861041b565b6040516101059190610d52565b60405180910390f35b61012860048036038101906101239190610fea565b6104a9565b6040516101359190610d52565b60405180910390f35b61014661057d565b6040516101539190610d52565b60405180910390f35b61017660048036038101906101719190610fea565b61060f565b6040516101839190611026565b60405180910390f35b6101a660048036038101906101a19190610fea565b61065b565b6040516101b39190610d52565b60405180910390f35b6101d660048036038101906101d19190611041565b61072f565b005b600080546101e5906110b0565b80601f0160208091040260200160405190810160405280929190818152602001828054610211906110b0565b801561025e5780601f106102335761010080835404028352916020019161025e565b820191906000526020600020905b81548152906001019060200180831161024157829003601f168201915b505050505081565b600360009054906101000a900473ffffffffffffffffffffffffffffffffffffffff1673ffffffffffffffffffffffffffffffffffffffff163373ffffffffffffffffffffffffffffffffffffffff16146102c057600080fd5b6102c982610c01565b600060405180606001604052806102de610c7f565b815260200184815260200183815250905080600460008673ffffffffffffffffffffffffffffffffffffffff1673ffffffffffffffffffffffffffffffffffffffff1681526020019081526020016000206000820151816000019081610344919061128d565b50602082015181600101556040820151816002019081610364919061128d565b509050508373ffffffffffffffffffffffffffffffffffffffff16600360009054906101000a900473ffffffffffffffffffffffffffffffffffffffff1673ffffffffffffffffffffffffffffffffffffffff167f3844b7075ed6e7d4b61342769cb2b1b325cba410a62932affaa90aee247dadf5856040516103e79190611026565b60405180910390a350505050565b600360009054906101000a900473ffffffffffffffffffffffffffffffffffffffff1681565b60018054610428906110b0565b80601f0160208091040260200160405190810160405280929190818152602001828054610454906110b0565b80156104a15780601f10610476576101008083540402835291602001916104a1565b820191906000526020600020905b81548152906001019060200180831161048457829003601f168201915b505050505081565b6060600460008373ffffffffffffffffffffffffffffffffffffffff1673ffffffffffffffffffffffffffffffffffffffff16815260200190815260200160002060000180546104f8906110b0565b80601f0160208091040260200160405190810160405280929190818152602001828054610524906110b0565b80156105715780601f1061054657610100808354040283529160200191610571565b820191906000526020600020905b81548152906001019060200180831161055457829003601f168201915b50505050509050919050565b60606002805461058c906110b0565b80601f01602080910402602001604051908101604052809291908181526020018280546105b8906110b0565b80156106055780601f106105da57610100808354040283529160200191610605565b820191906000526020600020905b8154815290600101906020018083116105e857829003601f168201915b5050505050905090565b6000600460008373ffffffffffffffffffffffffffffffffffffffff1673ffffffffffffffffffffffffffffffffffffffff168152602001908152602001600020600101549050919050565b6060600460008373ffffffffffffffffffffffffffffffffffffffff1673ffffffffffffffffffffffffffffffffffffffff16815260200190815260200160002060020180546106aa906110b0565b80601f01602080910402602001604051908101604052809291908181526020018280546106d6906110b0565b80156107235780601f106106f857610100808354040283529160200191610723565b820191906000526020600020905b81548152906001019060200180831161070657829003601f168201915b50505050509050919050565b60006040518060400160405280600881526020017f494e564553544f52000000000000000000000000000000000000000000000000815250905060006040518060400160405280600881526020017f494e56455354454500000000000000000000000000000000000000000000000081525090506000600460003373ffffffffffffffffffffffffffffffffffffffff1673ffffffffffffffffffffffffffffffffffffffff16815260200190815260200160002060020180546107f2906110b0565b80601f016020809104026020016040519081016040528092919081815260200182805461081e906110b0565b801561086b5780601f106108405761010080835404028352916020019161086b565b820191906000526020600020905b81548152906001019060200180831161084e57829003601f168201915b505050505090506000600460008773ffffffffffffffffffffffffffffffffffffffff1673ffffffffffffffffffffffffffffffffffffffff16815260200190815260200160002060020180546108c1906110b0565b80601f01602080910402602001604051908101604052809291908181526020018280546108ed906110b0565b801561093a5780601f1061090f5761010080835404028352916020019161093a565b820191906000526020600020905b81548152906001019060200180831161091d57829003601f168201915b5050505050905083604051602001610952919061139b565b6040516020818303038152906040528051906020012082604051602001610979919061139b565b60405160208183030381529060405280519060200120146109cf576040517f08c379a00000000000000000000000000000000000000000000000000000000081526004016109c6906113fe565b60405180910390fd5b826040516020016109e0919061139b565b6040516020818303038152906040528051906020012081604051602001610a07919061139b565b6040516020818303038152906040528051906020012014610a5d576040517f08c379a0000000000000000000000000000000000000000000000000000000008152600401610a549061146a565b60405180910390fd5b84600460003373ffffffffffffffffffffffffffffffffffffffff1673ffffffffffffffffffffffffffffffffffffffff168152602001908152602001600020600101541015610ae2576040517f08c379a0000000000000000000000000000000000000000000000000000000008152600401610ad9906114fc565b60405180910390fd5b84600460003373ffffffffffffffffffffffffffffffffffffffff1673ffffffffffffffffffffffffffffffffffffffff1681526020019081526020016000206001016000828254610b34919061154b565b9250508190555084600460008873ffffffffffffffffffffffffffffffffffffffff1673ffffffffffffffffffffffffffffffffffffffff1681526020019081526020016000206001016000828254610b8d919061157f565b925050819055508573ffffffffffffffffffffffffffffffffffffffff163373ffffffffffffffffffffffffffffffffffffffff167f4f0c65af3b5b4a0c9685ee8a9cf037ba5a5f463cc755b97aa763f7b60cdfb3d587604051610bf19190611026565b60405180910390a3505050505050565b8060046000600360009054906101000a900473ffffffffffffffffffffffffffffffffffffffff1673ffffffffffffffffffffffffffffffffffffffff1673ffffffffffffffffffffffffffffffffffffffff1681526020019081526020016000206001016000828254610c75919061154b565b9250508190555050565b606060006040518060400160405280600e81526020017f746573745f756e697175655f696400000000000000000000000000000000000081525090508091505090565b600081519050919050565b600082825260208201905092915050565b60005b83811015610cfc578082015181840152602081019050610ce1565b60008484015250505050565b6000601f19601f8301169050919050565b6000610d2482610cc2565b610d2e8185610ccd565b9350610d3e818560208601610cde565b610d4781610d08565b840191505092915050565b60006020820190508181036000830152610d6c8184610d19565b905092915050565b6000604051905090565b600080fd5b600080fd5b600073ffffffffffffffffffffffffffffffffffffffff82169050919050565b6000610db382610d88565b9050919050565b610dc381610da8565b8114610dce57600080fd5b50565b600081359050610de081610dba565b92915050565b6000819050919050565b610df981610de6565b8114610e0457600080fd5b50565b600081359050610e1681610df0565b92915050565b600080fd5b600080fd5b7f4e487b7100000000000000000000000000000000000000000000000000000000600052604160045260246000fd5b610e5e82610d08565b810181811067ffffffffffffffff82111715610e7d57610e7c610e26565b5b80604052505050565b6000610e90610d74565b9050610e9c8282610e55565b919050565b600067ffffffffffffffff821115610ebc57610ebb610e26565b5b610ec582610d08565b9050602081019050919050565b82818337600083830152505050565b6000610ef4610eef84610ea1565b610e86565b905082815260208101848484011115610f1057610f0f610e21565b5b610f1b848285610ed2565b509392505050565b600082601f830112610f3857610f37610e1c565b5b8135610f48848260208601610ee1565b91505092915050565b600080600060608486031215610f6a57610f69610d7e565b5b6000610f7886828701610dd1565b9350506020610f8986828701610e07565b925050604084013567ffffffffffffffff811115610faa57610fa9610d83565b5b610fb686828701610f23565b9150509250925092565b610fc981610da8565b82525050565b6000602082019050610fe46000830184610fc0565b92915050565b60006020828403121561100057610fff610d7e565b5b600061100e84828501610dd1565b91505092915050565b61102081610de6565b82525050565b600060208201905061103b6000830184611017565b92915050565b6000806040838503121561105857611057610d7e565b5b600061106685828601610dd1565b925050602061107785828601610e07565b9150509250929050565b7f4e487b7100000000000000000000000000000000000000000000000000000000600052602260045260246000fd5b600060028204905060018216806110c857607f821691505b6020821081036110db576110da611081565b5b50919050565b60008190508160005260206000209050919050565b60006020601f8301049050919050565b600082821b905092915050565b6000600883026111437fffffffffffffffffffffffffffffffffffffffffffffffffffffffffffffffff82611106565b61114d8683611106565b95508019841693508086168417925050509392505050565b6000819050919050565b600061118a61118561118084610de6565b611165565b610de6565b9050919050565b6000819050919050565b6111a48361116f565b6111b86111b082611191565b848454611113565b825550505050565b600090565b6111cd6111c0565b6111d881848461119b565b505050565b5b818110156111fc576111f16000826111c5565b6001810190506111de565b5050565b601f82111561124157611212816110e1565b61121b846110f6565b8101602085101561122a578190505b61123e611236856110f6565b8301826111dd565b50505b505050565b600082821c905092915050565b600061126460001984600802611246565b1980831691505092915050565b600061127d8383611253565b9150826002028217905092915050565b61129682610cc2565b67ffffffffffffffff8111156112af576112ae610e26565b5b6112b982546110b0565b6112c4828285611200565b600060209050601f8311600181146112f757600084156112e5578287015190505b6112ef8582611271565b865550611357565b601f198416611305866110e1565b60005b8281101561132d57848901518255600182019150602085019450602081019050611308565b8683101561134a5784890151611346601f891682611253565b8355505b6001600288020188555050505b505050505050565b600081905092915050565b600061137582610cc2565b61137f818561135f565b935061138f818560208601610cde565b80840191505092915050565b60006113a7828461136a565b915081905092915050565b7f496e766573746f722063616e206f6e6c7920676976652076616c756500000000600082015250565b60006113e8601c83610ccd565b91506113f3826113b2565b602082019050919050565b60006020820190508181036000830152611417816113db565b9050919050565b7f496e7665737465652063616e206f6e6c7920726563656976652076616c756500600082015250565b6000611454601f83610ccd565b915061145f8261141e565b602082019050919050565b6000602082019050818103600083015261148381611447565b9050919050565b7f496e766573746f7220646f6573206e6f74206861766520656e6f75676820766160008201527f6c75650000000000000000000000000000000000000000000000000000000000602082015250565b60006114e6602383610ccd565b91506114f18261148a565b604082019050919050565b60006020820190508181036000830152611515816114d9565b9050919050565b7f4e487b7100000000000000000000000000000000000000000000000000000000600052601160045260246000fd5b600061155682610de6565b915061156183610de6565b92508282039050818111156115795761157861151c565b5b92915050565b600061158a82610de6565b915061159583610de6565b92508282019050808211156115ad576115ac61151c565b5b9291505056fea2646970667358221220e56579b529731fb54e34406a188e174f957b9aa0c6db7fa10197a1c22135019064736f6c63430008110033",
  "linkReferences": {},
  "deployedLinkReferences": {}
}