{
    "_format": "hh-sol-artifact-1",
    "contractName": "Token",
    "sourceName": "contracts/Token.sol",
    "abi": [
        {
            "anonymous": false,
            "inputs": [
                {
                    "indexed": true,
                    "internalType": "address",
                    "name": "account",
                    "type": "address"
                },
                {
                    "indexed": true,
                    "internalType": "address",
                    "name": "sender",
                    "type": "address"
                }
            ],
            "name": "AdminApproved",
            "type": "event"
        },
        {
            "anonymous": false,
            "inputs": [
                {
                    "indexed": true,
                    "internalType": "address",
                    "name": "account",
                    "type": "address"
                },
                {
                    "indexed": true,
                    "internalType": "address",
                    "name": "sender",
                    "type": "address"
                }
            ],
            "name": "AdminRevoked",
            "type": "event"
        },
        {
            "anonymous": false,
            "inputs": [
                {
                    "indexed": true,
                    "internalType": "address",
                    "name": "previousOwner",
                    "type": "address"
                },
                {
                    "indexed": true,
                    "internalType": "address",
                    "name": "newOwner",
                    "type": "address"
                }
            ],
            "name": "OwnershipTransferred",
            "type": "event"
        },
        {
            "inputs": [
                {
                    "internalType": "uint256",
                    "name": "",
                    "type": "uint256"
                }
            ],
            "name": "URIMap",
            "outputs": [
                {
                    "internalType": "string",
                    "name": "",
                    "type": "string"
                }
            ],
            "stateMutability": "view",
            "type": "function"
        },
        {
            "inputs": [
                {
                    "internalType": "address",
                    "name": "admin",
                    "type": "address"
                }
            ],
            "name": "approveAdmin",
            "outputs": [],
            "stateMutability": "nonpayable",
            "type": "function"
        },
        {
            "inputs": [],
            "name": "getAdmins",
            "outputs": [
                {
                    "internalType": "address[]",
                    "name": "admins",
                    "type": "address[]"
                }
            ],
            "stateMutability": "view",
            "type": "function"
        },
        {
            "inputs": [
                {
                    "internalType": "address",
                    "name": "core",
                    "type": "address"
                },
                {
                    "internalType": "string",
                    "name": "uri",
                    "type": "string"
                }
            ],
            "name": "initialize",
            "outputs": [],
            "stateMutability": "nonpayable",
            "type": "function"
        },
        {
            "inputs": [
                {
                    "internalType": "address",
                    "name": "admin",
                    "type": "address"
                }
            ],
            "name": "isAdmin",
            "outputs": [
                {
                    "internalType": "bool",
                    "name": "",
                    "type": "bool"
                }
            ],
            "stateMutability": "view",
            "type": "function"
        },
        {
            "inputs": [],
            "name": "owner",
            "outputs": [
                {
                    "internalType": "address",
                    "name": "",
                    "type": "address"
                }
            ],
            "stateMutability": "view",
            "type": "function"
        },
        {
            "inputs": [],
            "name": "renounceOwnership",
            "outputs": [],
            "stateMutability": "nonpayable",
            "type": "function"
        },
        {
            "inputs": [
                {
                    "internalType": "address",
                    "name": "admin",
                    "type": "address"
                }
            ],
            "name": "revokeAdmin",
            "outputs": [],
            "stateMutability": "nonpayable",
            "type": "function"
        },
        {
            "inputs": [
                {
                    "internalType": "address",
                    "name": "core",
                    "type": "address"
                },
                {
                    "internalType": "uint256",
                    "name": "tokenId",
                    "type": "uint256"
                },
                {
                    "internalType": "string",
                    "name": "jsonURL",
                    "type": "string"
                }
            ],
            "name": "setURI",
            "outputs": [],
            "stateMutability": "nonpayable",
            "type": "function"
        },
        {
            "inputs": [
                {
                    "internalType": "bytes4",
                    "name": "interfaceId",
                    "type": "bytes4"
                }
            ],
            "name": "supportsInterface",
            "outputs": [
                {
                    "internalType": "bool",
                    "name": "",
                    "type": "bool"
                }
            ],
            "stateMutability": "view",
            "type": "function"
        },
        {
            "inputs": [
                {
                    "internalType": "address",
                    "name": "core",
                    "type": "address"
                },
                {
                    "internalType": "uint256",
                    "name": "tokenId",
                    "type": "uint256"
                }
            ],
            "name": "tokenURI",
            "outputs": [
                {
                    "internalType": "string",
                    "name": "",
                    "type": "string"
                }
            ],
            "stateMutability": "view",
            "type": "function"
        },
        {
            "inputs": [
                {
                    "internalType": "address",
                    "name": "newOwner",
                    "type": "address"
                }
            ],
            "name": "transferOwnership",
            "outputs": [],
            "stateMutability": "nonpayable",
            "type": "function"
        }
    ],
    "bytecode": "0x608060405234801561001057600080fd5b5061002d61002261003260201b60201c565b61003a60201b60201c565b6100fe565b600033905090565b60008060009054906101000a900473ffffffffffffffffffffffffffffffffffffffff169050816000806101000a81548173ffffffffffffffffffffffffffffffffffffffff021916908373ffffffffffffffffffffffffffffffffffffffff1602179055508173ffffffffffffffffffffffffffffffffffffffff168173ffffffffffffffffffffffffffffffffffffffff167f8be0079c531659141344cd1fd0a4f28419497f9722a3daafe3b4186f6b6457e060405160405180910390a35050565b611dbe8061010d6000396000f3fe608060405234801561001057600080fd5b50600436106100b45760003560e01c8063715018a611610071578063715018a61461018b5780638da5cb5b14610195578063b774499f146101b3578063e9dc6375146101e3578063f2fde38b14610213578063f399e22e1461022f576100b4565b806301ffc9a7146100b957806324d7806c146100e95780632d3456701461011957806331ae450b14610135578063685e8247146101535780636d73e6691461016f575b600080fd5b6100d360048036038101906100ce91906111a7565b61024b565b6040516100e091906111ef565b60405180910390f35b61010360048036038101906100fe9190611268565b6102d5565b60405161011091906111ef565b60405180910390f35b610133600480360381019061012e9190611268565b61032f565b005b61013d610437565b60405161014a9190611353565b60405180910390f35b61016d600480360381019061016891906114f1565b610519565b005b61018960048036038101906101849190611268565b6106ee565b005b6101936107f5565b005b61019d61087d565b6040516101aa919061156f565b60405180910390f35b6101cd60048036038101906101c8919061158a565b6108a6565b6040516101da9190611636565b60405180910390f35b6101fd60048036038101906101f89190611658565b610946565b60405161020a9190611636565b60405180910390f35b61022d60048036038101906102289190611268565b610a7c565b005b61024960048036038101906102449190611698565b610b73565b005b60007fe9dc6375000000000000000000000000000000000000000000000000000000007bffffffffffffffffffffffffffffffffffffffffffffffffffffffff1916827bffffffffffffffffffffffffffffffffffffffffffffffffffffffff191614806102be57506102bd82610ce9565b5b806102ce57506102cd82610ce9565b5b9050919050565b60008173ffffffffffffffffffffffffffffffffffffffff166102f661087d565b73ffffffffffffffffffffffffffffffffffffffff1614806103285750610327826001610d6390919063ffffffff16565b5b9050919050565b610337610d93565b73ffffffffffffffffffffffffffffffffffffffff1661035561087d565b73ffffffffffffffffffffffffffffffffffffffff16146103ab576040517f08c379a00000000000000000000000000000000000000000000000000000000081526004016103a290611740565b60405180910390fd5b6103bf816001610d6390919063ffffffff16565b15610434573373ffffffffffffffffffffffffffffffffffffffff168173ffffffffffffffffffffffffffffffffffffffff167f7c0c3c84c67c85fcac635147348bfe374c24a1a93d0366d1cfe9d8853cbf89d560405160405180910390a3610432816001610d9b90919063ffffffff16565b505b50565b60606104436001610dcb565b67ffffffffffffffff81111561045c5761045b6113c6565b5b60405190808252806020026020018201604052801561048a5781602001602082028036833780820191505090505b50905060005b61049a6001610dcb565b811015610515576104b5816001610de090919063ffffffff16565b8282815181106104c8576104c7611760565b5b602002602001019073ffffffffffffffffffffffffffffffffffffffff16908173ffffffffffffffffffffffffffffffffffffffff1681525050808061050d906117be565b915050610490565b5090565b3373ffffffffffffffffffffffffffffffffffffffff1661053861087d565b73ffffffffffffffffffffffffffffffffffffffff16148061056a5750610569336001610d6390919063ffffffff16565b5b6105a9576040517f08c379a00000000000000000000000000000000000000000000000000000000081526004016105a090611878565b60405180910390fd5b8273ffffffffffffffffffffffffffffffffffffffff16600360009054906101000a900473ffffffffffffffffffffffffffffffffffffffff1673ffffffffffffffffffffffffffffffffffffffff1614610639576040517f08c379a0000000000000000000000000000000000000000000000000000000008152600401610630906118e4565b60405180910390fd5b806005600084815260200190815260200160002090816106599190611b10565b50600360009054906101000a900473ffffffffffffffffffffffffffffffffffffffff1673ffffffffffffffffffffffffffffffffffffffff1663e92a89f683836040518363ffffffff1660e01b81526004016106b7929190611bf1565b600060405180830381600087803b1580156106d157600080fd5b505af11580156106e5573d6000803e3d6000fd5b50505050505050565b6106f6610d93565b73ffffffffffffffffffffffffffffffffffffffff1661071461087d565b73ffffffffffffffffffffffffffffffffffffffff161461076a576040517f08c379a000000000000000000000000000000000000000000000000000000000815260040161076190611740565b60405180910390fd5b61077e816001610d6390919063ffffffff16565b6107f2573373ffffffffffffffffffffffffffffffffffffffff168173ffffffffffffffffffffffffffffffffffffffff167f7e1a1a08d52e4ba0e21554733d66165fd5151f99460116223d9e3a608eec5cb160405160405180910390a36107f0816001610dfa90919063ffffffff16565b505b50565b6107fd610d93565b73ffffffffffffffffffffffffffffffffffffffff1661081b61087d565b73ffffffffffffffffffffffffffffffffffffffff1614610871576040517f08c379a000000000000000000000000000000000000000000000000000000000815260040161086890611740565b60405180910390fd5b61087b6000610e2a565b565b60008060009054906101000a900473ffffffffffffffffffffffffffffffffffffffff16905090565b600560205280600052604060002060009150905080546108c590611933565b80601f01602080910402602001604051908101604052809291908181526020018280546108f190611933565b801561093e5780601f106109135761010080835404028352916020019161093e565b820191906000526020600020905b81548152906001019060200180831161092157829003601f168201915b505050505081565b60608273ffffffffffffffffffffffffffffffffffffffff16600360009054906101000a900473ffffffffffffffffffffffffffffffffffffffff1673ffffffffffffffffffffffffffffffffffffffff16146109d8576040517f08c379a00000000000000000000000000000000000000000000000000000000081526004016109cf906118e4565b60405180910390fd5b6005600083815260200190815260200160002080546109f690611933565b80601f0160208091040260200160405190810160405280929190818152602001828054610a2290611933565b8015610a6f5780601f10610a4457610100808354040283529160200191610a6f565b820191906000526020600020905b815481529060010190602001808311610a5257829003601f168201915b5050505050905092915050565b610a84610d93565b73ffffffffffffffffffffffffffffffffffffffff16610aa261087d565b73ffffffffffffffffffffffffffffffffffffffff1614610af8576040517f08c379a0000000000000000000000000000000000000000000000000000000008152600401610aef90611740565b60405180910390fd5b600073ffffffffffffffffffffffffffffffffffffffff168173ffffffffffffffffffffffffffffffffffffffff1603610b67576040517f08c379a0000000000000000000000000000000000000000000000000000000008152600401610b5e90611c93565b60405180910390fd5b610b7081610e2a565b50565b3373ffffffffffffffffffffffffffffffffffffffff16610b9261087d565b73ffffffffffffffffffffffffffffffffffffffff161480610bc45750610bc3336001610d6390919063ffffffff16565b5b610c03576040517f08c379a0000000000000000000000000000000000000000000000000000000008152600401610bfa90611878565b60405180910390fd5b81600360006101000a81548173ffffffffffffffffffffffffffffffffffffffff021916908373ffffffffffffffffffffffffffffffffffffffff160217905550600360009054906101000a900473ffffffffffffffffffffffffffffffffffffffff1673ffffffffffffffffffffffffffffffffffffffff1663fe2e1f5833836040518363ffffffff1660e01b8152600401610ca1929190611cb3565b6020604051808303816000875af1158015610cc0573d6000803e3d6000fd5b505050506040513d601f19601f82011682018060405250810190610ce49190611cf8565b505050565b60007f553e757e000000000000000000000000000000000000000000000000000000007bffffffffffffffffffffffffffffffffffffffffffffffffffffffff1916827bffffffffffffffffffffffffffffffffffffffffffffffffffffffff19161480610d5c5750610d5b82610eee565b5b9050919050565b6000610d8b836000018373ffffffffffffffffffffffffffffffffffffffff1660001b610f58565b905092915050565b600033905090565b6000610dc3836000018373ffffffffffffffffffffffffffffffffffffffff1660001b610f7b565b905092915050565b6000610dd98260000161108f565b9050919050565b6000610def83600001836110a0565b60001c905092915050565b6000610e22836000018373ffffffffffffffffffffffffffffffffffffffff1660001b6110cb565b905092915050565b60008060009054906101000a900473ffffffffffffffffffffffffffffffffffffffff169050816000806101000a81548173ffffffffffffffffffffffffffffffffffffffff021916908373ffffffffffffffffffffffffffffffffffffffff1602179055508173ffffffffffffffffffffffffffffffffffffffff168173ffffffffffffffffffffffffffffffffffffffff167f8be0079c531659141344cd1fd0a4f28419497f9722a3daafe3b4186f6b6457e060405160405180910390a35050565b60007f01ffc9a7000000000000000000000000000000000000000000000000000000007bffffffffffffffffffffffffffffffffffffffffffffffffffffffff1916827bffffffffffffffffffffffffffffffffffffffffffffffffffffffff1916149050919050565b600080836001016000848152602001908152602001600020541415905092915050565b60008083600101600084815260200190815260200160002054905060008114611083576000600182610fad9190611d25565b9050600060018660000180549050610fc59190611d25565b9050818114611034576000866000018281548110610fe657610fe5611760565b5b906000526020600020015490508087600001848154811061100a57611009611760565b5b90600052602060002001819055508387600101600083815260200190815260200160002081905550505b8560000180548061104857611047611d59565b5b600190038181906000526020600020016000905590558560010160008681526020019081526020016000206000905560019350505050611089565b60009150505b92915050565b600081600001805490509050919050565b60008260000182815481106110b8576110b7611760565b5b9060005260206000200154905092915050565b60006110d78383610f58565b611130578260000182908060018154018082558091505060019003906000526020600020016000909190919091505582600001805490508360010160008481526020019081526020016000208190555060019050611135565b600090505b92915050565b6000604051905090565b600080fd5b600080fd5b60007fffffffff0000000000000000000000000000000000000000000000000000000082169050919050565b6111848161114f565b811461118f57600080fd5b50565b6000813590506111a18161117b565b92915050565b6000602082840312156111bd576111bc611145565b5b60006111cb84828501611192565b91505092915050565b60008115159050919050565b6111e9816111d4565b82525050565b600060208201905061120460008301846111e0565b92915050565b600073ffffffffffffffffffffffffffffffffffffffff82169050919050565b60006112358261120a565b9050919050565b6112458161122a565b811461125057600080fd5b50565b6000813590506112628161123c565b92915050565b60006020828403121561127e5761127d611145565b5b600061128c84828501611253565b91505092915050565b600081519050919050565b600082825260208201905092915050565b6000819050602082019050919050565b6112ca8161122a565b82525050565b60006112dc83836112c1565b60208301905092915050565b6000602082019050919050565b600061130082611295565b61130a81856112a0565b9350611315836112b1565b8060005b8381101561134657815161132d88826112d0565b9750611338836112e8565b925050600181019050611319565b5085935050505092915050565b6000602082019050818103600083015261136d81846112f5565b905092915050565b6000819050919050565b61138881611375565b811461139357600080fd5b50565b6000813590506113a58161137f565b92915050565b600080fd5b600080fd5b6000601f19601f8301169050919050565b7f4e487b7100000000000000000000000000000000000000000000000000000000600052604160045260246000fd5b6113fe826113b5565b810181811067ffffffffffffffff8211171561141d5761141c6113c6565b5b80604052505050565b600061143061113b565b905061143c82826113f5565b919050565b600067ffffffffffffffff82111561145c5761145b6113c6565b5b611465826113b5565b9050602081019050919050565b82818337600083830152505050565b600061149461148f84611441565b611426565b9050828152602081018484840111156114b0576114af6113b0565b5b6114bb848285611472565b509392505050565b600082601f8301126114d8576114d76113ab565b5b81356114e8848260208601611481565b91505092915050565b60008060006060848603121561150a57611509611145565b5b600061151886828701611253565b935050602061152986828701611396565b925050604084013567ffffffffffffffff81111561154a5761154961114a565b5b611556868287016114c3565b9150509250925092565b6115698161122a565b82525050565b60006020820190506115846000830184611560565b92915050565b6000602082840312156115a05761159f611145565b5b60006115ae84828501611396565b91505092915050565b600081519050919050565b600082825260208201905092915050565b60005b838110156115f15780820151818401526020810190506115d6565b60008484015250505050565b6000611608826115b7565b61161281856115c2565b93506116228185602086016115d3565b61162b816113b5565b840191505092915050565b6000602082019050818103600083015261165081846115fd565b905092915050565b6000806040838503121561166f5761166e611145565b5b600061167d85828601611253565b925050602061168e85828601611396565b9150509250929050565b600080604083850312156116af576116ae611145565b5b60006116bd85828601611253565b925050602083013567ffffffffffffffff8111156116de576116dd61114a565b5b6116ea858286016114c3565b9150509250929050565b7f4f776e61626c653a2063616c6c6572206973206e6f7420746865206f776e6572600082015250565b600061172a6020836115c2565b9150611735826116f4565b602082019050919050565b600060208201905081810360008301526117598161171d565b9050919050565b7f4e487b7100000000000000000000000000000000000000000000000000000000600052603260045260246000fd5b7f4e487b7100000000000000000000000000000000000000000000000000000000600052601160045260246000fd5b60006117c982611375565b91507fffffffffffffffffffffffffffffffffffffffffffffffffffffffffffffffff82036117fb576117fa61178f565b5b600182019050919050565b7f41646d696e436f6e74726f6c3a204d757374206265206f776e6572206f72206160008201527f646d696e00000000000000000000000000000000000000000000000000000000602082015250565b60006118626024836115c2565b915061186d82611806565b604082019050919050565b6000602082019050818103600083015261189181611855565b9050919050565b7f4e6f74206f776e65720000000000000000000000000000000000000000000000600082015250565b60006118ce6009836115c2565b91506118d982611898565b602082019050919050565b600060208201905081810360008301526118fd816118c1565b9050919050565b7f4e487b7100000000000000000000000000000000000000000000000000000000600052602260045260246000fd5b6000600282049050600182168061194b57607f821691505b60208210810361195e5761195d611904565b5b50919050565b60008190508160005260206000209050919050565b60006020601f8301049050919050565b600082821b905092915050565b6000600883026119c67fffffffffffffffffffffffffffffffffffffffffffffffffffffffffffffffff82611989565b6119d08683611989565b95508019841693508086168417925050509392505050565b6000819050919050565b6000611a0d611a08611a0384611375565b6119e8565b611375565b9050919050565b6000819050919050565b611a27836119f2565b611a3b611a3382611a14565b848454611996565b825550505050565b600090565b611a50611a43565b611a5b818484611a1e565b505050565b5b81811015611a7f57611a74600082611a48565b600181019050611a61565b5050565b601f821115611ac457611a9581611964565b611a9e84611979565b81016020851015611aad578190505b611ac1611ab985611979565b830182611a60565b50505b505050565b600082821c905092915050565b6000611ae760001984600802611ac9565b1980831691505092915050565b6000611b008383611ad6565b9150826002028217905092915050565b611b19826115b7565b67ffffffffffffffff811115611b3257611b316113c6565b5b611b3c8254611933565b611b47828285611a83565b600060209050601f831160018114611b7a5760008415611b68578287015190505b611b728582611af4565b865550611bda565b601f198416611b8886611964565b60005b82811015611bb057848901518255600182019150602085019450602081019050611b8b565b86831015611bcd5784890151611bc9601f891682611ad6565b8355505b6001600288020188555050505b505050505050565b611beb81611375565b82525050565b6000604082019050611c066000830185611be2565b8181036020830152611c1881846115fd565b90509392505050565b7f4f776e61626c653a206e6577206f776e657220697320746865207a65726f206160008201527f6464726573730000000000000000000000000000000000000000000000000000602082015250565b6000611c7d6026836115c2565b9150611c8882611c21565b604082019050919050565b60006020820190508181036000830152611cac81611c70565b9050919050565b6000604082019050611cc86000830185611560565b8181036020830152611cda81846115fd565b90509392505050565b600081519050611cf28161137f565b92915050565b600060208284031215611d0e57611d0d611145565b5b6000611d1c84828501611ce3565b91505092915050565b6000611d3082611375565b9150611d3b83611375565b9250828203905081811115611d5357611d5261178f565b5b92915050565b7f4e487b7100000000000000000000000000000000000000000000000000000000600052603160045260246000fdfea2646970667358221220f481e0f523a6543923473055adae06927cb1871c5d08ace67a312af15782218a64736f6c63430008110033",
    "linkReferences": {},
    "deployedLinkReferences": {}
}